{
  "_format": "hh-sol-artifact-1",
  "contractName": "LudoGame",
  "sourceName": "contracts/Ludogame.sol",
  "abi": [
    {
      "inputs": [],
      "name": "AlreadyJoined",
      "type": "error"
    },
    {
      "inputs": [],
      "name": "GameAlreadyWon",
      "type": "error"
    },
    {
      "inputs": [],
      "name": "InvalidDiceRoll",
      "type": "error"
    },
    {
      "inputs": [],
      "name": "NotPlayer",
      "type": "error"
    },
    {
      "anonymous": false,
      "inputs": [
        {
          "indexed": true,
          "internalType": "address",
          "name": "player",
          "type": "address"
        },
        {
          "indexed": false,
          "internalType": "uint8",
          "name": "result",
          "type": "uint8"
        }
      ],
      "name": "DiceRolled",
      "type": "event"
    },
    {
      "anonymous": false,
      "inputs": [
        {
          "indexed": true,
          "internalType": "address",
          "name": "player",
          "type": "address"
        }
      ],
      "name": "PlayerJoined",
      "type": "event"
    },
    {
      "anonymous": false,
      "inputs": [
        {
          "indexed": true,
          "internalType": "address",
          "name": "player",
          "type": "address"
        },
        {
          "indexed": false,
          "internalType": "uint256",
          "name": "position",
          "type": "uint256"
        }
      ],
      "name": "PlayerMoved",
      "type": "event"
    },
    {
      "anonymous": false,
      "inputs": [
        {
          "indexed": true,
          "internalType": "address",
          "name": "player",
          "type": "address"
        }
      ],
      "name": "PlayerWon",
      "type": "event"
    },
    {
      "inputs": [
        {
          "internalType": "address",
          "name": "player",
          "type": "address"
        }
      ],
      "name": "getPlayerPosition",
      "outputs": [
        {
          "internalType": "uint256",
          "name": "",
          "type": "uint256"
        }
      ],
      "stateMutability": "view",
      "type": "function"
    },
    {
      "inputs": [
        {
          "internalType": "address",
          "name": "player",
          "type": "address"
        }
      ],
      "name": "hasPlayerWon",
      "outputs": [
        {
          "internalType": "bool",
          "name": "",
          "type": "bool"
        }
      ],
      "stateMutability": "view",
      "type": "function"
    },
    {
      "inputs": [],
      "name": "joinGame",
      "outputs": [],
      "stateMutability": "nonpayable",
      "type": "function"
    },
    {
      "inputs": [
        {
          "internalType": "uint256",
          "name": "",
          "type": "uint256"
        }
      ],
      "name": "playerList",
      "outputs": [
        {
          "internalType": "address",
          "name": "",
          "type": "address"
        }
      ],
      "stateMutability": "view",
      "type": "function"
    },
    {
      "inputs": [
        {
          "internalType": "address",
          "name": "",
          "type": "address"
        }
      ],
      "name": "players",
      "outputs": [
        {
          "internalType": "uint256",
          "name": "position",
          "type": "uint256"
        },
        {
          "internalType": "bool",
          "name": "hasWon",
          "type": "bool"
        }
      ],
      "stateMutability": "view",
      "type": "function"
    },
    {
      "inputs": [],
      "name": "rollAndMove",
      "outputs": [
        {
          "internalType": "uint8",
          "name": "",
          "type": "uint8"
        }
      ],
      "stateMutability": "nonpayable",
      "type": "function"
    },
    {
      "inputs": [],
      "name": "winningPosition",
      "outputs": [
        {
          "internalType": "uint256",
          "name": "",
          "type": "uint256"
        }
      ],
      "stateMutability": "view",
      "type": "function"
    }
  ],
  "bytecode": "0x6080604052603860025534801561001557600080fd5b50610c38806100256000396000f3fe608060405234801561001057600080fd5b506004361061007d5760003560e01c8063ae6d90731161005b578063ae6d9073146100ee578063c07ddc421461011e578063d4f77b1c1461014e578063e2eb41ff146101585761007d565b80632486d67114610082578063257ca563146100a05780633f831810146100be575b600080fd5b61008a610189565b60405161009791906108d5565b60405180910390f35b6100a861018f565b6040516100b5919061090c565b60405180910390f35b6100d860048036038101906100d3919061098a565b6105b6565b6040516100e591906108d5565b60405180910390f35b610108600480360381019061010391906109e3565b610601565b6040516101159190610a1f565b60405180910390f35b6101386004803603810190610133919061098a565b610640565b6040516101459190610a55565b60405180910390f35b610156610698565b005b610172600480360381019061016d919061098a565b61083e565b604051610180929190610a70565b60405180910390f35b60025481565b6000806000803373ffffffffffffffffffffffffffffffffffffffff1673ffffffffffffffffffffffffffffffffffffffff1681526020019081526020016000206000015414801561022d57506000803373ffffffffffffffffffffffffffffffffffffffff1673ffffffffffffffffffffffffffffffffffffffff16815260200190815260200160002060010160009054906101000a900460ff16155b15610264576040517fa717dfcc00000000000000000000000000000000000000000000000000000000815260040160405180910390fd5b6000803373ffffffffffffffffffffffffffffffffffffffff1673ffffffffffffffffffffffffffffffffffffffff16815260200190815260200160002060010160009054906101000a900460ff16156102ea576040517fb152371700000000000000000000000000000000000000000000000000000000815260040160405180910390fd5b60006102f461086f565b905060018160ff16108061030b575060068160ff16115b15610342576040517ff3e5649100000000000000000000000000000000000000000000000000000000815260040160405180910390fd5b3373ffffffffffffffffffffffffffffffffffffffff167fc58abb24bb142a4e0cad0493a9c010849a79d42f31893b1433c3f8df5601097982604051610388919061090c565b60405180910390a28060ff166000803373ffffffffffffffffffffffffffffffffffffffff1673ffffffffffffffffffffffffffffffffffffffff16815260200190815260200160002060000160008282546103e49190610ac8565b925050819055506002546000803373ffffffffffffffffffffffffffffffffffffffff1673ffffffffffffffffffffffffffffffffffffffff168152602001908152602001600020600001541061051f576002546000803373ffffffffffffffffffffffffffffffffffffffff1673ffffffffffffffffffffffffffffffffffffffff1681526020019081526020016000206000018190555060016000803373ffffffffffffffffffffffffffffffffffffffff1673ffffffffffffffffffffffffffffffffffffffff16815260200190815260200160002060010160006101000a81548160ff0219169083151502179055503373ffffffffffffffffffffffffffffffffffffffff167f970f935ee01502df35da11db45c29bdd97d8f41d5a0640c1dc3bd96c67f9798760405160405180910390a26105af565b3373ffffffffffffffffffffffffffffffffffffffff167fe0a1b340a14d47a5482875f738abb6e2c70f533d80188606facc527b70cbd2126000803373ffffffffffffffffffffffffffffffffffffffff1673ffffffffffffffffffffffffffffffffffffffff168152602001908152602001600020600001546040516105a691906108d5565b60405180910390a25b8091505090565b60008060008373ffffffffffffffffffffffffffffffffffffffff1673ffffffffffffffffffffffffffffffffffffffff168152602001908152602001600020600001549050919050565b6001818154811061061157600080fd5b906000526020600020016000915054906101000a900473ffffffffffffffffffffffffffffffffffffffff1681565b60008060008373ffffffffffffffffffffffffffffffffffffffff1673ffffffffffffffffffffffffffffffffffffffff16815260200190815260200160002060010160009054906101000a900460ff169050919050565b60008060003373ffffffffffffffffffffffffffffffffffffffff1673ffffffffffffffffffffffffffffffffffffffff1681526020019081526020016000206000015414610712576040517e3b268200000000000000000000000000000000000000000000000000000000815260040160405180910390fd5b604051806040016040528060008152602001600015158152506000803373ffffffffffffffffffffffffffffffffffffffff1673ffffffffffffffffffffffffffffffffffffffff1681526020019081526020016000206000820151816000015560208201518160010160006101000a81548160ff0219169083151502179055509050506001339080600181540180825580915050600190039060005260206000200160009091909190916101000a81548173ffffffffffffffffffffffffffffffffffffffff021916908373ffffffffffffffffffffffffffffffffffffffff1602179055503373ffffffffffffffffffffffffffffffffffffffff167f31e760aa525306aba638a784082a013b6a1cc0a9a1789f3f22281c0453b10b1f60405160405180910390a2565b60006020528060005260406000206000915090508060000154908060010160009054906101000a900460ff16905082565b60006001600642443360405160200161088a93929190610b65565b6040516020818303038152906040528051906020012060001c6108ad9190610bd1565b6108b79190610ac8565b905090565b6000819050919050565b6108cf816108bc565b82525050565b60006020820190506108ea60008301846108c6565b92915050565b600060ff82169050919050565b610906816108f0565b82525050565b600060208201905061092160008301846108fd565b92915050565b600080fd5b600073ffffffffffffffffffffffffffffffffffffffff82169050919050565b60006109578261092c565b9050919050565b6109678161094c565b811461097257600080fd5b50565b6000813590506109848161095e565b92915050565b6000602082840312156109a05761099f610927565b5b60006109ae84828501610975565b91505092915050565b6109c0816108bc565b81146109cb57600080fd5b50565b6000813590506109dd816109b7565b92915050565b6000602082840312156109f9576109f8610927565b5b6000610a07848285016109ce565b91505092915050565b610a198161094c565b82525050565b6000602082019050610a346000830184610a10565b92915050565b60008115159050919050565b610a4f81610a3a565b82525050565b6000602082019050610a6a6000830184610a46565b92915050565b6000604082019050610a8560008301856108c6565b610a926020830184610a46565b9392505050565b7f4e487b7100000000000000000000000000000000000000000000000000000000600052601160045260246000fd5b6000610ad3826108bc565b9150610ade836108bc565b9250828201905080821115610af657610af5610a99565b5b92915050565b6000819050919050565b610b17610b12826108bc565b610afc565b82525050565b60008160601b9050919050565b6000610b3582610b1d565b9050919050565b6000610b4782610b2a565b9050919050565b610b5f610b5a8261094c565b610b3c565b82525050565b6000610b718286610b06565b602082019150610b818285610b06565b602082019150610b918284610b4e565b601482019150819050949350505050565b7f4e487b7100000000000000000000000000000000000000000000000000000000600052601260045260246000fd5b6000610bdc826108bc565b9150610be7836108bc565b925082610bf757610bf6610ba2565b5b82820690509291505056fea2646970667358221220fba8dcf1805b98ed9f93d3d6c4192bc7c67a64ffe567feb97b6c86e6119e63d264736f6c63430008180033",
  "linkReferences": {},
  "deployedLinkReferences": {}
}